:10000000900400200D01000009010000090100001A
:1000100000000000000000000000000000000000E0
:1000200000000000000000000000000009010000C6
:1000300000000000000000000901000009010000AC
:100040000901000009010000090100000901000088
:100050000901000009010000090100000901000078
:100060000901000009010000090100000901000068
:100070000901000009010000090100000901000058
:100080000901000009010000090100000901000048
:100090000901000009010000090100000901000038
:1000A000090100000901000010B5064C2378002B5F
:1000B00007D1054B002B02D0044800E000BF01230C
:1000C000237010BD4C0000200000000070130000E1
:1000D000084B10B5002B03D00749084800E000BFCB
:1000E00007480368002B00D110BD064B002BFBD046
:1000F0009847F9E70000000050000020701300004E
:100100007013000000000000FEE7000010B5104A68
:10011000104B9A4209D00F4B0D4A03E01168196049
:10012000043304320C498B42F8D30C4B02E000221A
:100130001A6004330A4A9342F9D30A4AFF210A4B50
:100140008B439360094B9847094B9847FEE7C0469D
:1001500070130000000000204C0000204C00002024
:100160000C02002000ED00E0000000008112000001
:10017000390A000030B504681E4B1B78002B14D1DF
:100180001D4B1E481864586C800B85035D645D6CC4
:100190001B4828405864A2204000235C40252B4384
:1001A00023544438FF38134B18704823FF33E35C63
:1001B000DB071DD5104B5B6C9B049B0C934203D259
:1001C0000D4B5A6C9204920C002303E00B48C05C68
:1001D000C85401339342F9D34821FF31635C0120B5
:1001E0000343DBB263540021024B1970100030BD91
:1001F0000020FCE7680000206C010020AC0000201B
:10020000FF3F00F0F0B505681800441EA041C0B2E1
:100210001E005F01224CE419103464686400640F0E
:1002200003340127A74097422ED80F0058011C49DC
:1002300009184C698020000620434861580118497C
:1002400009180C000F6148699104890C800B800328
:1002500001436161606913490140616108335B01D9
:10026000EB18D97902200143C9B2D971587980219C
:10027000494201435971330008335B01EB18DB79C4
:100280009B07F8D51000F0BD8001074FC719002467
:1002900002E0085D385501349442FAD3CEE7C046F7
:1002A0006C010020FF3F00F0EC00002010B500239F
:1002B000014CA04710BDC04605020000324A9369B8
:1002C00001210B439361314B314A9A623149996262
:1002D0009A62314A9A628222D205137801210B4335
:1002E00013708223DB059B78DB07FAD42B4B1A684B
:1002F000520B1F2313401F2B38D08221C9050A8DB2
:100300009B012748024013430B85244B1A68920C2B
:100310001F231A401F2A2BD08221C9050B8D1F20B5
:10032000834313430B851D4B1A68D20D07231340DB
:10033000072B1FD08222D205118D1B0319480140C3
:100340000B43138511787F230B401370137804211E
:100350000B431370144B536211890C20814311819C
:1003600011890B3881431181002209E01A3BC4E74F
:10037000023AD1E7043BDDE7002119700132013375
:100380007F2AF9D97047C04600080040006000414C
:1003900000000356000103D6000203D61860800057
:1003A0003FF8FFFFFF8FFFFF6C010020016000237B
:1003B00003714371054B8360054BC360054B0361BB
:1003C0000B78022213430B707047C04609080000E7
:1003D000050200007501000030B50468164B1B785B
:1003E000002B08D04620FF30235C40252B432354AC
:1003F0000020114B187011480164436C9B0B99034A
:100400004164416C93041B090D4D29400B43436427
:10041000A2214900635C4020034363544823FF3317
:10042000E35CDB07FAD54821FF31635C012003431D
:10043000DBB26354100030BD680000206C01002066
:10044000FF3F00F00C4A53699B0B9903516108224E
:10045000FF32835C02210B43DBB283540622FF325E
:10046000815C80235B420B4383540823FF33C35CCE
:100470009B07FAD57047C0466C010020002904D1C3
:1004800010220623FF33C254704720220623FF3375
:10049000C254F9E7F0B5D6464F464646C0B582B0DD
:1004A00004680822FF32A35C10210B43DBB2A35483
:1004B000C5490E784B788D78CA78120215432DB253
:1004C000AAB294460F794A79120217433FB2BAB2E0
:1004D00090468A799146CA79120249460A43924661
:1004E00040218946C4314A4662541B023343B7490E
:1004F0008B4200D1FFE016DD882109018B4200D13B
:10050000BAE034DDB2498B4200D150E153DDB1494C
:100510008B4200D14FE1B04A934213D14571200084
:10052000AE4B9847A2E080225200934200D1F1E006
:100530000DDC812B00D1ACE0822B00D1B1E0802B0F
:1005400000D19EE001212000A54B98478EE081223A
:100550005200934200D1E6E000DAE0E0FF32FF32E1
:100560009342EFD1012120009D4B98477EE0A021CE
:10057000C9008B4272D08131FF318B424DD0994AF4
:100580009342DFD10F23424613406246002A00D037
:10059000BBE0002B00D1B8E0032B00D9B5E03A0650
:1005A00000D5ACE008335B01E31810225A7120003B
:1005B0008A4B98475AE0902212019342C2D10571AA
:1005C0002000864B98470322A0235B00E254864B11
:1005D000586C864A1040C02189050843586440255C
:1005E0004620FF3025548248186430269020400071
:1005F0002654586B104001435963802192204000DB
:1006000021547C481863B02040002554586F0240A4
:100610005A67B2235B00E15428E080235B009C45CD
:100620000BD080239B009C4513D15346432B0ED8FF
:1006300052467149714B984718E05346122B04D823
:1006400052466F496D4B984710E01222F9E743225A
:10065000EFE701212000624B984707E020005F4B45
:100660009847802252422A43D2B2A27202B01CBCE6
:1006700090469946A246F0BD011D01225F4B984766
:10068000F4E76B46991D00230B8002225B4B9847D1
:10069000ECE76B46991D00230B800222574B9847CD
:1006A000E4E700226B46DA8050323A400F2341469D
:1006B0000B40032B1AD8002A0ED008335B01E41834
:1006C000A2795209012313406A46D38002226B4665
:1006D000991D4A4B9847C9E708335B01E418A27992
:1006E0001209012313406A46D380EFE7012120005D
:1006F0003B4B9847BAE72000384B9847B6E708339A
:100700005B01E31820225A7151E701212000344B8C
:100710009847ABE701212000314B9847A6E720001E
:100720002E4B9847A2E70F23424613406246002A09
:1007300038D1002B36D0032B34D83A061AD41A00FD
:1007400008325201A2189279D2060FD51A00083247
:100750005201A21810211171D279920606D50833E0
:100760005B01E3182022DA711F3A1A7120001B4B3B
:1007700098477BE71A0008325201A2189279920634
:10078000F4D51A0008325201A21820211171D27931
:100790005206EBD508335B01E3184022DA713E3A8A
:1007A0001A71E3E7012120000D4B98475EE7200016
:1007B0000A4B98475AE75346082B23D852460E490E
:1007C00044310E4B984751E76C00002001030000B4
:1007D00021200000A121000021220000450400008A
:1007E0007D040000020300006C010020FFFFFF8F6A
:1007F000AC0000202C01002000000020AD02000011
:10080000C81200000822DAE7F8B5040003689A8BE2
:10081000120707D40822FF329B5CDB0635D51C4B40
:10082000984732E09A8B08210A4392B29A83802239
:100830009A72112080214900585440260621FF3128
:100840005E5482256D005A55124A576812498C46EB
:100850000F40C02189053800084350605069674641
:100860003840014351610D4911600D4911615068D3
:100870000C49084080218902014351605168890B6D
:10088000880350605E55002323712079F8BDC0466F
:10089000950400006C010020FFFFFF8F6C0000201A
:1008A000EC000020FF3F00F010B5C3699B07FCD4AB
:1008B000046802239C430460C369DB07FCD404681A
:1008C000012323430360C369DB07FCD4C369DB074F
:1008D000FCD4C3699B07F9D4084B1A430260C3696F
:1008E0005B07FCD4C0239B0243608181C3699B07E3
:1008F000FCD4026802231343036010BD840000404F
:1009000010B586B01F4A94235B001F49D1501F4881
:10091000D050D1501E49D1501E486B46020013CA18
:1009200013C313CA13C30023052B09D89A006946C1
:100930005158194A914201D00133F5E7DBB200E08A
:1009400000231648C2695C1C0121A1400A43C26110
:1009500019001031124A30339B00002098509858EB
:100960004024204398500B0020339B000C4A9B5896
:100970005B06F8D5C42292030A4907480A4B9847F8
:1009800006B010BD0060004100000353000103D316
:10099000000203D3DC1200000014004200080040F3
:1009A000001C004004C50000A9080000C369002B1A
:1009B000FCD189B20185037E9B07FCD57047C369D2
:1009C000002BFCD1438BDBB2002B03D0438B0722DF
:1009D00093434383008DC0B270470000024B1B7EDF
:1009E0009B080120184070470014004210B582B0E7
:1009F0000E4B1868431C17D00D4A0223536006247F
:100A0000412154549361116A19400191126A1340B3
:100A10000193019B002B07D080239B011A6882F36E
:100A20000888044A9360004702B010BD042000000B
:100A30000061004100ED00E010B5104B98471049EF
:100A40004B681E2293431C3A13434B600D490B7DA8
:100A50000C208343042003430B750B4B0121997138
:100A60009A70094B9B79002BFBD0BFF35F8F62B666
:100A7000064B9847064B9847FCE7C046ED09000037
:100A8000004000410010004000040040AD0A00009A
:100A9000210E000010B5034B1B68DB6802210248E1
:100AA000984710BD000200204813000010B5284BE5
:100AB0009847284A284B9A82274BDB68DB07FBD5EF
:100AC00082225200254B5A62244B5B685B07FBD4A1
:100AD00041218023214AD1508023204AD3585B06EC
:100AE000FAD51F4B1A68920E3F2A2FD01D490B8B47
:100AF000802083430B831B4BDB68DB05FBD5194947
:100B0000194B0B62920280239B001A43CA61154B5A
:100B1000DB68DB05FBD50622124B1A83114BDB6821
:100B2000DB05FBD5832252000C4BDA620B4B5B6872
:100B30000C221A42FAD143219823084AD150074B7C
:100B40005B685B07FBD4094B984710BD203ACDE7A3
:100B5000010900004E04000000140040001C004089
:100B60002060800000100040B8051F0C7D110000BF
:100B700070B584B01E4B1B78002B33D004290AD0EB
:100B800002290AD004784D006A1E06236B449C4655
:100B90006244002008E00468F5E70488F3E737338F
:100BA00013702409013A0130A84207D20F232340D1
:100BB000092BF4D8302633431370F2E701A8302311
:100BC0000370483343704B1C5B000A22C254033548
:100BD0000D234355074B1B68DB68023149009847DA
:100BE00004B070BD034B1B68DB689847F8E7C0464C
:100BF000690000200002002072B6BFF35F8FEFF3A0
:100C00000883064A1360036883F30888FF23020001
:100C10009A43034B9A6043681847704704020020C8
:100C200000ED00E0F0B5C64600B592B000267A238C
:100C30009846734B1B681B69402101A89847070021
:100C4000002501AC54E06F4B1B78002B2CD14346A0
:100C5000532B2CD04346522B63D043464F2B67D0A7
:100C60004346482B6AD04346572B6DD043466F2BE3
:100C70006DD04346682B6FD04346772B73D04346E5
:100C8000472B77D04346542B00D17EE043464E2B72
:100C900000D180E04346562B20D1594B1B68DB68BE
:100CA0001B215948984719E0584B9847CFE7013422
:100CB0000135119A781B904200D91000002105E0FF
:100CC0002278327001360134013501318142F7D387
:100CD000013D013C119B99421CD3C0460023119356
:100CE000484B1B78002B61D17A239846013401359B
:100CF000BD429ED22378FF2BF9D0232BA3D01A001C
:100D0000303AD2B2092A5AD8119A1201303B134311
:100D10001193EBE73A4A12689269591A30009047EA
:100D2000DBE7374B1B685B69119930009847D5E7C3
:100D30006B4644229B181B783370CFE76B464422E6
:100D40009B181B883380C9E7119B3360C6E70121DC
:100D500030002F4B9847C1E733881193022111A827
:100D60002B4B9847BAE733681193042111A8284BFD
:100D70009847B3E71198274B9847274B1B6883F395
:100D80000888BFF35F8F62B6A8E701221D4B1A7077
:100D90001E4B9847A2E71B4B1B78002B03D0002269
:100DA000184B1A709AE7194B9847F8E7144B1B68D1
:100DB000DB680121194898477A23984696E71A007C
:100DC000413AD2B2052A05D8119A1201373B134392
:100DD00011938BE71A00613AD2B2052A05D8119A0D
:100DE0001201573B1343119380E72C2B03D09846F5
:100DF000002311937AE7119E0023119376E7C046F2
:100E00000002002069000020F4120000950A000092
:100E1000710B0000F90B0000040200204C130000CD
:100E200010B50D4883689847002804D10B4B9847AC
:100E3000002806D110BD0A4B1C330A4A13600A4B26
:100E400098470A4B98472328F4D1054B3833054A75
:100E50001360054B9847C046EC010020DD090000F7
:100E6000F412000000020020250C0000890E000092
:100E700010B5C1B20248034B9847012010BDC046CF
:100E800000140042AD09000010B5044B984700283B
:100E9000FBD00348034B984710BDC046DD09000056
:100EA00000140042BF09000070B50E0005000024C8
:100EB00004E02878034B984701350134B442F8D355
:100EC000200070BD710E000010B50400024B984761
:100ED0002070012010BDC046890E0000000248406D
:100EE000002305E040000749484080B201339BB22F
:100EF000072B05D802B2002AF4DB400080B2F5E7E8
:100F00007047C04621100000F0B583B007000E0006
:100F100000240023019306E07B1C3D70802E15D039
:100F20001F000134A4B2B44216D20D4B9847C5B28B
:100F3000019928000B4B984701900B4B1B88002B05
:100F4000EAD10A4B1B78002BEBD0E5E706490A886B
:100F5000013A0A801F00E4E7019803B0F0BDC046E3
:100F6000890E0000DD0E0000080200200A020020A9
:100F7000F8B507000C000120154DA8472000A84730
:100F8000E043C0B2A847002400260DE03D78013BB5
:100F9000104A1380013728000D4B98472100280084
:100FA0000D4B9847040001367F2E08D8094B1B884B
:100FB000002BEBD1094A1578002DECD0E6E7200A8A
:100FC000C0B2034DA847E0B2A847054B9847F8BD0B
:100FD000710E000008020020DD0E00000A02002051
:100FE000890E0000F0B583B006000D00022101A8B3
:100FF000124CA04780213000A0470600104FB84790
:1010000080B2000284B2B84780B22418A4B2A642CB
:1010100003D101AB1B78AB4205D01820094B984790
:10102000002003B0F0BD01AB5B78ED43EDB2AB4205
:10103000F3D10620034B98470120F2E7090F000087
:10104000890E0000710E000070B505000E1E09D15A
:1010500001221C4B1A70730602D080367F239E43F8
:10106000002406E0184B19800022164B1A70F2E794
:101070000124002C10D1154B9847FF23184043281A
:10108000F6D071281BD01528F3D1F1E70134E4B272
:10109000803E8035002E08D0210028000C4B984758
:1010A000FF2318400628F1D0F4E70420094B9847A5
:1010B000064B98470022034B1A70012000E00020E5
:1010C00070BDC0460A02002008020020890E000000
:1010D000710F0000710E000070B50500002904D1E9
:1010E00001221F4B1A70642611E01E4B198000224A
:1010F0001B4B1A70F7E7013C1B4B9847002801D1A6
:10110000002CF8D1002C22D1013E002E25D0432006
:10111000164B9847164CEFE721002800154B9847CF
:10112000020001280FD0002A14D0134B9847002248
:10113000FF2318400128EFD00428F4D106200B4BE0
:1011400098470022EFE70134E4B28035EBE7012451
:101150000122E8E7024B1A700126300070BDC0463C
:101160000A02002008020020DD090000710E0000C4
:1011700000350C00E50F0000890E000010B5054C8D
:101180008223DB052360044B984721682000034B32
:10119000984710BDEC010020BD020000AD03000027
:1011A00010B582B001900123012201A90248034C2D
:1011B000A047012002B010BDEC0100200502000094
:1011C00010B582B06B46DC1D012221000248034BA2
:1011D0009847207802B010BDEC0100207501000096
:1011E00010B50848084B9847002808D0054B1A68E6
:1011F0004823FF33D05C473BFF3B184010BD002025
:10120000FCE7C046EC0100200908000070B50C00A6
:1012100001230A0001000248024DA847200070BDCA
:10122000EC0100200502000070B504000D00064826
:10123000064B9847002801D1002070BD2A002100EC
:101240000148034B9847F8E7EC010020090800002B
:101250007501000070B504000D000648064B984764
:10126000002801D1002070BD2A0021000148034B55
:101270009847F8E7EC01002009080000D9030000B6
:1012800070B500260C4D0D4C641BA410A64209D16C
:10129000002600F05DF80A4D0A4C641BA410A6421B
:1012A00005D170BDB300EB5898470136EEE7B300A7
:1012B000EB5898470136F2E75C1300005C1300001E
:1012C0005C130000601300001201100102000040D6
:1012D000EB03246110010000000100000004004243
:1012E00000080042000C00420010004200140042BE
:1012F0000018004276322E3138446563203139209F
:10130000323031372031353A32383A34330A0D0031
:10131000A1110000C1110000E11100000D12000038
:10132000291200000D12000055120000710E00007D
:10133000890E0000DD090000A90E0000C90E0000A2
:1013400049100000D91000000A0D00003E00000006
:10135000F8B5C046F8BC08BC9E467047D1000000F6
:10136000F8B5C046F8BC08BC9E467047A90000000E
:1013700009024300020100C000090400000102024A
:1013800000000524001001042402000524060001C9
:101390000524010001070583030800FF090401007B
:1013A000020A000000070581024000000705020252
:0C13B0004000000000C201000000080026
:00000001FF
